{
  "contractName": "DocStamp",
  "abi": [
    {
      "anonymous": false,
      "inputs": [
        {
          "indexed": true,
          "internalType": "bytes32",
          "name": "record",
          "type": "bytes32"
        },
        {
          "indexed": false,
          "internalType": "uint256",
          "name": "timestamp",
          "type": "uint256"
        },
        {
          "indexed": false,
          "internalType": "bool",
          "name": "returnValue",
          "type": "bool"
        }
      ],
      "name": "CertificateIssued",
      "type": "event"
    },
    {
      "anonymous": false,
      "inputs": [
        {
          "indexed": true,
          "internalType": "address",
          "name": "previousOwner",
          "type": "address"
        },
        {
          "indexed": true,
          "internalType": "address",
          "name": "newOwner",
          "type": "address"
        }
      ],
      "name": "OwnershipTransferred",
      "type": "event"
    },
    {
      "inputs": [],
      "name": "owner",
      "outputs": [
        {
          "internalType": "address",
          "name": "",
          "type": "address"
        }
      ],
      "stateMutability": "view",
      "type": "function",
      "constant": true
    },
    {
      "inputs": [
        {
          "internalType": "bytes32",
          "name": "",
          "type": "bytes32"
        }
      ],
      "name": "records",
      "outputs": [
        {
          "internalType": "address",
          "name": "",
          "type": "address"
        }
      ],
      "stateMutability": "view",
      "type": "function",
      "constant": true
    },
    {
      "inputs": [
        {
          "internalType": "address",
          "name": "newOwner",
          "type": "address"
        }
      ],
      "name": "transferOwnership",
      "outputs": [],
      "stateMutability": "nonpayable",
      "type": "function"
    },
    {
      "inputs": [
        {
          "internalType": "string",
          "name": "name",
          "type": "string"
        },
        {
          "internalType": "string",
          "name": "details",
          "type": "string"
        }
      ],
      "name": "issueCertificate",
      "outputs": [],
      "stateMutability": "nonpayable",
      "type": "function"
    },
    {
      "inputs": [],
      "name": "owningAuthority",
      "outputs": [
        {
          "internalType": "address",
          "name": "",
          "type": "address"
        }
      ],
      "stateMutability": "view",
      "type": "function",
      "constant": true
    },
    {
      "inputs": [
        {
          "internalType": "string",
          "name": "name",
          "type": "string"
        },
        {
          "internalType": "string",
          "name": "details",
          "type": "string"
        },
        {
          "internalType": "bytes32",
          "name": "certificate",
          "type": "bytes32"
        }
      ],
      "name": "verifyCertificate",
      "outputs": [
        {
          "internalType": "bool",
          "name": "",
          "type": "bool"
        }
      ],
      "stateMutability": "view",
      "type": "function",
      "constant": true
    }
  ],
  "bytecode": "0x608060405234801561001057600080fd5b50600080546001600160a01b031916331790556104b1806100326000396000f3fe608060405234801561001057600080fd5b50600436106100625760003560e01c806301e64725146100675780631b853182146100ad578063211bbe71146100be5780638da5cb5b146100d3578063a090e4c4146100e6578063f2fde38b14610109575b600080fd5b6100906100753660046102e7565b6001602052600090815260409020546001600160a01b031681565b6040516001600160a01b0390911681526020015b60405180910390f35b6000546001600160a01b0316610090565b6100d16100cc366004610349565b61011c565b005b600054610090906001600160a01b031681565b6100f96100f43660046103b5565b6101ec565b60405190151581526020016100a4565b6100d1610117366004610429565b610262565b6000546001600160a01b0316331461013357600080fd5b60008484848460405160200161014c9493929190610459565b60408051601f198184030181528282528051602091820120600084529083019182905291519020909150810361018157600080fd5b60008181526001602081905260409182902080546001600160a01b03191633179055905182917fe2f856eb4bdb96dc07c8658ff6dc2faa0cba255b51e9af05a293fc28d74bd8ac916101dd914282521515602082015260400190565b60405180910390a25050505050565b600080868686866040516020016102069493929190610459565b604051602081830303815290604052805190602001209050808303610253576000805484825260016020526040909120546001600160a01b03918216911603610253576001915050610259565b60009150505b95945050505050565b6000546001600160a01b0316331461027957600080fd5b6001600160a01b03811661028c57600080fd5b600080546040516001600160a01b03808516939216917f8be0079c531659141344cd1fd0a4f28419497f9722a3daafe3b4186f6b6457e091a3600080546001600160a01b0319166001600160a01b0392909216919091179055565b6000602082840312156102f957600080fd5b5035919050565b60008083601f84011261031257600080fd5b50813567ffffffffffffffff81111561032a57600080fd5b60208301915083602082850101111561034257600080fd5b9250929050565b6000806000806040858703121561035f57600080fd5b843567ffffffffffffffff8082111561037757600080fd5b61038388838901610300565b9096509450602087013591508082111561039c57600080fd5b506103a987828801610300565b95989497509550505050565b6000806000806000606086880312156103cd57600080fd5b853567ffffffffffffffff808211156103e557600080fd5b6103f189838a01610300565b9097509550602088013591508082111561040a57600080fd5b5061041788828901610300565b96999598509660400135949350505050565b60006020828403121561043b57600080fd5b81356001600160a01b038116811461045257600080fd5b9392505050565b838582376000848201600081528385823760009301928352509094935050505056fea2646970667358221220e6e7eec1554786bff229a40c2e07ca628d98da5a49a9a959c20f78861279439464736f6c634300080f0033",
  "immutableReferences": {},
  "source": "//SPDX-License-Identifier:MIT\r\n// DocStamp.sol\r\n\r\npragma solidity ^0.8.15;\r\n\r\nimport './Ownable.sol';\r\n\r\ncontract DocStamp is Ownable {\r\n  mapping (bytes32 => address) public records;\r\n\r\n  event CertificateIssued(bytes32 indexed record, uint256 timestamp, bool returnValue);\r\n\r\n  function issueCertificate(string calldata name, string calldata details) external onlyOwner {\r\n    bytes32 certificate = keccak256(abi.encodePacked(name, details));\r\n    require(certificate != keccak256(abi.encodePacked(\"\")));\r\n    records[certificate] = msg.sender;\r\n    emit CertificateIssued(certificate, block.timestamp, true);\r\n  }\r\n\r\n  function owningAuthority() external view returns (address) {\r\n    return owner;\r\n  }\r\n\r\n  function verifyCertificate(string calldata name, string calldata details, bytes32 certificate) external view\r\n   returns (bool) {\r\n    bytes32 certificate2 = keccak256(abi.encodePacked(name, details));\r\n    // are certificates the same?\r\n    if (certificate == certificate2) {\r\n      // does the certificate exist on the blockchain?\r\n      if (records[certificate] == owner) {\r\n        return true;\r\n      }\r\n    }\r\n    return false;\r\n  }\r\n}",
  "sourcePath": "D:\\Projects\\CertiProof\\backend\\contracts\\DocStamp.sol",
  "compiler": {
    "name": "solc",
    "version": "0.8.15+commit.e14f2714.Emscripten.clang"
  },
  "schemaVersion": "3.4.16",
  "updatedAt": "2025-09-14T17:41:12.783Z",
  "networkType": "ethereum",
  "devdoc": {
    "kind": "dev",
    "methods": {},
    "version": 1
  },
  "userdoc": {
    "kind": "user",
    "methods": {},
    "version": 1
  }
}