{
  "contractName": "DocStamp",
  "abi": [
    {
      "anonymous": false,
      "inputs": [
        {
          "indexed": true,
          "internalType": "string",
          "name": "prn",
          "type": "string"
        },
        {
          "indexed": false,
          "internalType": "string",
          "name": "certificateHash",
          "type": "string"
        },
        {
          "indexed": false,
          "internalType": "uint256",
          "name": "timestamp",
          "type": "uint256"
        }
      ],
      "name": "CertificateIssued",
      "type": "event"
    },
    {
      "anonymous": false,
      "inputs": [
        {
          "indexed": true,
          "internalType": "string",
          "name": "prn",
          "type": "string"
        },
        {
          "indexed": false,
          "internalType": "uint256",
          "name": "timestamp",
          "type": "uint256"
        }
      ],
      "name": "CertificateRevoked",
      "type": "event"
    },
    {
      "inputs": [
        {
          "internalType": "string",
          "name": "",
          "type": "string"
        }
      ],
      "name": "certificateExists",
      "outputs": [
        {
          "internalType": "bool",
          "name": "",
          "type": "bool"
        }
      ],
      "stateMutability": "view",
      "type": "function",
      "constant": true
    },
    {
      "inputs": [
        {
          "internalType": "string",
          "name": "",
          "type": "string"
        }
      ],
      "name": "certificates",
      "outputs": [
        {
          "internalType": "string",
          "name": "",
          "type": "string"
        }
      ],
      "stateMutability": "view",
      "type": "function",
      "constant": true
    },
    {
      "inputs": [
        {
          "internalType": "string",
          "name": "prn",
          "type": "string"
        },
        {
          "internalType": "string",
          "name": "certificateHash",
          "type": "string"
        }
      ],
      "name": "issueCertificate",
      "outputs": [],
      "stateMutability": "nonpayable",
      "type": "function"
    },
    {
      "inputs": [
        {
          "internalType": "string",
          "name": "prn",
          "type": "string"
        }
      ],
      "name": "getCertificateByPRN",
      "outputs": [
        {
          "internalType": "string",
          "name": "",
          "type": "string"
        }
      ],
      "stateMutability": "view",
      "type": "function",
      "constant": true
    },
    {
      "inputs": [
        {
          "internalType": "string",
          "name": "prn",
          "type": "string"
        },
        {
          "internalType": "string",
          "name": "certificateHash",
          "type": "string"
        }
      ],
      "name": "verifyCertificate",
      "outputs": [
        {
          "internalType": "bool",
          "name": "",
          "type": "bool"
        }
      ],
      "stateMutability": "view",
      "type": "function",
      "constant": true
    },
    {
      "inputs": [
        {
          "internalType": "string",
          "name": "certificateHash",
          "type": "string"
        }
      ],
      "name": "verifyCertificateHash",
      "outputs": [
        {
          "internalType": "bool",
          "name": "",
          "type": "bool"
        }
      ],
      "stateMutability": "view",
      "type": "function",
      "constant": true
    },
    {
      "inputs": [
        {
          "internalType": "string",
          "name": "prn",
          "type": "string"
        }
      ],
      "name": "revokeCertificate",
      "outputs": [],
      "stateMutability": "nonpayable",
      "type": "function"
    }
  ],
  "bytecode": "0x608060405234801561001057600080fd5b50610c1a806100206000396000f3fe608060405234801561001057600080fd5b506004361061007d5760003560e01c80632751f71b1161005b5780632751f71b146100ed57806331a137ee146101005780638f2b91ea14610120578063aa874b5d1461013357600080fd5b80630655f03714610082578063142e1542146100c5578063211bbe71146100da575b600080fd5b6100b0610090366004610773565b805160208183018101805160018252928201919093012091525460ff1681565b60405190151581526020015b60405180910390f35b6100d86100d336600461086d565b610146565b005b6100d86100e83660046108af565b6102e5565b6100b06100fb3660046108af565b6104b9565b61011361010e36600461086d565b610535565b6040516100bc919061094b565b61011361012e366004610773565b610633565b6100b061014136600461086d565b6106d8565b600080838360405161015992919061097e565b908152602001604051809103902080546101729061098e565b90501161019a5760405162461bcd60e51b8152600401610191906109c8565b60405180910390fd5b60008083836040516101ad92919061097e565b908152602001604051809103902080546101c69061098e565b80601f01602080910402602001604051908101604052809291908181526020018280546101f29061098e565b801561023f5780601f106102145761010080835404028352916020019161023f565b820191906000526020600020905b81548152906001019060200180831161022257829003601f168201915b505050505090506000838360405161025892919061097e565b908152602001604051809103902060006102729190610707565b6001816040516102829190610a09565b908152604051908190036020018120805460ff191690556102a6908490849061097e565b604051908190038120428252907f57bf3aad622f3cf905e8c86d1e40e1de99f3ea3a1c14decf97a8671c24fbe5579060200160405180910390a2505050565b826103285760405162461bcd60e51b815260206004820152601360248201527250524e2063616e6e6f7420626520656d70747960681b6044820152606401610191565b806103755760405162461bcd60e51b815260206004820181905260248201527f436572746966696361746520686173682063616e6e6f7420626520656d7074796044820152606401610191565b6000848460405161038792919061097e565b908152602001604051809103902080546103a09061098e565b1590506103ff5760405162461bcd60e51b815260206004820152602760248201527f436572746966696361746520616c72656164792069737375656420666f7220746044820152663434b99028292760c91b6064820152608401610191565b81816000868660405161041392919061097e565b9081526020016040518091039020918261042e929190610a74565b50600180838360405161044292919061097e565b908152604051908190036020018120805492151560ff1990931692909217909155610470908590859061097e565b60405180910390207f24a04857698b6d767a0b6c787412aaeba1015d94408ca75c0a32aff28c2074aa8383426040516104ab93929190610b35565b60405180910390a250505050565b600082826040516020016104ce92919061097e565b60405160208183030381529060405280519060200120600086866040516104f692919061097e565b90815260200160405180910390206040516020016105149190610b6e565b60405160208183030381529060405280519060200120149050949350505050565b6060600080848460405161054a92919061097e565b908152602001604051809103902080546105639061098e565b9050116105825760405162461bcd60e51b8152600401610191906109c8565b6000838360405161059492919061097e565b908152602001604051809103902080546105ad9061098e565b80601f01602080910402602001604051908101604052809291908181526020018280546105d99061098e565b80156106265780601f106105fb57610100808354040283529160200191610626565b820191906000526020600020905b81548152906001019060200180831161060957829003601f168201915b5050505050905092915050565b8051602081830181018051600082529282019190930120915280546106579061098e565b80601f01602080910402602001604051908101604052809291908181526020018280546106839061098e565b80156106d05780601f106106a5576101008083540402835291602001916106d0565b820191906000526020600020905b8154815290600101906020018083116106b357829003601f168201915b505050505081565b6000600183836040516106ec92919061097e565b9081526040519081900360200190205460ff16905092915050565b5080546107139061098e565b6000825580601f10610723575050565b601f0160209004906000526020600020908101906107419190610744565b50565b5b808211156107595760008155600101610745565b5090565b634e487b7160e01b600052604160045260246000fd5b60006020828403121561078557600080fd5b813567ffffffffffffffff8082111561079d57600080fd5b818401915084601f8301126107b157600080fd5b8135818111156107c3576107c361075d565b604051601f8201601f19908116603f011681019083821181831017156107eb576107eb61075d565b8160405282815287602084870101111561080457600080fd5b826020860160208301376000928101602001929092525095945050505050565b60008083601f84011261083657600080fd5b50813567ffffffffffffffff81111561084e57600080fd5b60208301915083602082850101111561086657600080fd5b9250929050565b6000806020838503121561088057600080fd5b823567ffffffffffffffff81111561089757600080fd5b6108a385828601610824565b90969095509350505050565b600080600080604085870312156108c557600080fd5b843567ffffffffffffffff808211156108dd57600080fd5b6108e988838901610824565b9096509450602087013591508082111561090257600080fd5b5061090f87828801610824565b95989497509550505050565b60005b8381101561093657818101518382015260200161091e565b83811115610945576000848401525b50505050565b602081526000825180602084015261096a81604085016020870161091b565b601f01601f19169190910160400192915050565b8183823760009101908152919050565b600181811c908216806109a257607f821691505b6020821081036109c257634e487b7160e01b600052602260045260246000fd5b50919050565b60208082526021908201527f4e6f20636572746966696361746520666f756e6420666f7220746869732050526040820152602760f91b606082015260800190565b60008251610a1b81846020870161091b565b9190910192915050565b601f821115610a6f57600081815260208120601f850160051c81016020861015610a4c5750805b601f850160051c820191505b81811015610a6b57828155600101610a58565b5050505b505050565b67ffffffffffffffff831115610a8c57610a8c61075d565b610aa083610a9a835461098e565b83610a25565b6000601f841160018114610ad45760008515610abc5750838201355b600019600387901b1c1916600186901b178355610b2e565b600083815260209020601f19861690835b82811015610b055786850135825560209485019460019092019101610ae5565b5086821015610b225760001960f88860031b161c19848701351681555b505060018560011b0183555b5050505050565b604081528260408201528284606083013760006060848301015260006060601f19601f8601168301019050826020830152949350505050565b6000808354610b7c8161098e565b60018281168015610b945760018114610ba957610bd8565b60ff1984168752821515830287019450610bd8565b8760005260208060002060005b85811015610bcf5781548a820152908401908201610bb6565b50505082870194505b5092969550505050505056fea2646970667358221220b60b840e2abaaa6c2842819503d2136b54e91e14b920a3afa2cbf51758a33d6264736f6c634300080f0033",
  "immutableReferences": {},
  "source": "//SPDX-License-Identifier:MIT\r\n// DocStamp.sol\r\n\r\npragma solidity ^0.8.15;\r\n\r\nimport './Ownable.sol';\r\n\r\ncontract DocStamp  {\r\n  // Mapping from PRN (student unique ID) to certificate hash (JWT token)\r\n  mapping (string => string) public certificates;\r\n  \r\n  // Mapping to check if a certificate hash exists\r\n  mapping (string => bool) public certificateExists;\r\n\r\n  event CertificateIssued(string indexed prn, string certificateHash, uint256 timestamp);\r\n  event CertificateRevoked(string indexed prn, uint256 timestamp);\r\n\r\n  // Issue certificate: Map PRN to certificate hash (JWT token)\r\n  function issueCertificate(string calldata prn, string calldata certificateHash) external  {\r\n    require(bytes(prn).length > 0, \"PRN cannot be empty\");\r\n    require(bytes(certificateHash).length > 0, \"Certificate hash cannot be empty\");\r\n    require(bytes(certificates[prn]).length == 0, \"Certificate already issued for this PRN\");\r\n    \r\n    certificates[prn] = certificateHash;\r\n    certificateExists[certificateHash] = true;\r\n    \r\n    emit CertificateIssued(prn, certificateHash, block.timestamp);\r\n  }\r\n\r\n  // Get certificate hash by PRN\r\n  function getCertificateByPRN(string calldata prn) external view returns (string memory) {\r\n    require(bytes(certificates[prn]).length > 0, \"No certificate found for this PRN\");\r\n    return certificates[prn];\r\n  }\r\n\r\n  // Verify certificate by PRN and hash\r\n  function verifyCertificate(string calldata prn, string calldata certificateHash) external view returns (bool) {\r\n    return keccak256(abi.encodePacked(certificates[prn])) == keccak256(abi.encodePacked(certificateHash));\r\n  }\r\n\r\n  // Verify certificate hash exists\r\n  function verifyCertificateHash(string calldata certificateHash) external view returns (bool) {\r\n    return certificateExists[certificateHash];\r\n  }\r\n\r\n  // Revoke certificate (in case of invalidation)\r\n  function revokeCertificate(string calldata prn) external  {\r\n    require(bytes(certificates[prn]).length > 0, \"No certificate found for this PRN\");\r\n    \r\n    string memory hash = certificates[prn];\r\n    delete certificates[prn];\r\n    delete certificateExists[hash];\r\n    \r\n    emit CertificateRevoked(prn, block.timestamp);\r\n  }\r\n\r\n  //function owningAuthority() external view returns (address) {\r\n   // return owner;\r\n//  }\r\n}",
  "sourcePath": "D:\\Projects\\CertiProof\\backend\\contracts\\DocStamp.sol",
  "compiler": {
    "name": "solc",
    "version": "0.8.15+commit.e14f2714.Emscripten.clang"
  },
  "schemaVersion": "3.4.16",
  "updatedAt": "2025-12-14T12:13:54.421Z",
  "networkType": "ethereum",
  "devdoc": {
    "kind": "dev",
    "methods": {},
    "version": 1
  },
  "userdoc": {
    "kind": "user",
    "methods": {},
    "version": 1
  }
}